{"abi":[{"type":"function","name":"getSpotPrice","inputs":[{"name":"pool","type":"address","internalType":"address"},{"name":"tokenIndex","type":"int128","internalType":"int128"},{"name":"quoteTokenIndex","type":"int128","internalType":"int128"},{"name":"amountIn","type":"uint256","internalType":"uint256"}],"outputs":[{"name":"price","type":"uint256","internalType":"uint256"}],"stateMutability":"view"}],"bytecode":{"object":"0x608060405234801561001057600080fd5b506101a1806100206000396000f3fe608060405234801561001057600080fd5b506004361061002b5760003560e01c80633f3f79f214610030575b600080fd5b61004361003e3660046100f9565b610055565b60405190815260200160405180910390f35b604051635e0d443f60e01b8152600f84810b600483015283900b602482015260448101829052600090859082906001600160a01b03831690635e0d443f90606401602060405180830381865afa1580156100b3573d6000803e3d6000fd5b505050506040513d601f19601f820116820180604052508101906100d79190610152565b979650505050505050565b8035600f81900b81146100f457600080fd5b919050565b6000806000806080858703121561010f57600080fd5b84356001600160a01b038116811461012657600080fd5b9350610134602086016100e2565b9250610142604086016100e2565b9396929550929360600135925050565b60006020828403121561016457600080fd5b505191905056fea26469706673582212204fa8287143d1639a54fd32104351bc2a0d3092a3e5cebbf7cd095d2401dbbbfd64736f6c63430008170033","linkReferences":{}},"methodIdentifiers":{"getSpotPrice(address,int128,int128,uint256)":"3f3f79f2"},"id":20}