{"abi":[{"type":"function","name":"getSpotPrice","inputs":[{"name":"poolAddress","type":"address","internalType":"address"},{"name":"tokenIndexFrom","type":"int128","internalType":"int128"},{"name":"tokenIndexTo","type":"int128","internalType":"int128"},{"name":"amount","type":"uint256","internalType":"uint256"}],"outputs":[{"name":"","type":"uint256","internalType":"uint256"}],"stateMutability":"view"},{"type":"function","name":"getTokenAddress","inputs":[{"name":"poolAddress","type":"address","internalType":"address"},{"name":"idx","type":"uint256","internalType":"uint256"}],"outputs":[{"name":"","type":"address","internalType":"address"}],"stateMutability":"view"}],"bytecode":{"object":"0x608060405234801561001057600080fd5b506102a7806100206000396000f3fe608060405234801561001057600080fd5b50600436106100365760003560e01c80631471e9e11461003b5780633f3f79f21461006b575b600080fd5b61004e6100493660046101a4565b61008c565b6040516001600160a01b0390911681526020015b60405180910390f35b61007e6100793660046101e7565b610102565b604051908152602001610062565b60405163c661065760e01b81526004810182905260009083906001600160a01b0382169063c661065790602401602060405180830381865afa1580156100d6573d6000803e3d6000fd5b505050506040513d601f19601f820116820180604052508101906100fa9190610234565b949350505050565b604051635e0d443f60e01b8152600f84810b600483015283900b60248201526044810182905260009085906001600160a01b03821690635e0d443f90606401602060405180830381865afa15801561015e573d6000803e3d6000fd5b505050506040513d601f19601f820116820180604052508101906101829190610258565b9695505050505050565b6001600160a01b03811681146101a157600080fd5b50565b600080604083850312156101b757600080fd5b82356101c28161018c565b946020939093013593505050565b8035600f81900b81146101e257600080fd5b919050565b600080600080608085870312156101fd57600080fd5b84356102088161018c565b9350610216602086016101d0565b9250610224604086016101d0565b9396929550929360600135925050565b60006020828403121561024657600080fd5b81516102518161018c565b9392505050565b60006020828403121561026a57600080fd5b505191905056fea26469706673582212204fa4464e267f2d42ecf2b42f06d69ce42f4494a7d92e62c0537adad58136c44c64736f6c63430008170033","linkReferences":{}},"methodIdentifiers":{"getSpotPrice(address,int128,int128,uint256)":"3f3f79f2","getTokenAddress(address,uint256)":"1471e9e1"},"id":20}