{"abi":[{"type":"constructor","inputs":[{"name":"_stableSwapAddress","type":"address","internalType":"address"}],"stateMutability":"nonpayable"},{"type":"function","name":"getSpotPrice","inputs":[{"name":"i","type":"int128","internalType":"int128"},{"name":"j","type":"int128","internalType":"int128"},{"name":"dx","type":"uint256","internalType":"uint256"}],"outputs":[{"name":"","type":"uint256","internalType":"uint256"}],"stateMutability":"view"},{"type":"function","name":"getUnderlyingCoins","inputs":[{"name":"i","type":"uint256","internalType":"uint256"}],"outputs":[{"name":"","type":"address","internalType":"address"}],"stateMutability":"view"},{"type":"function","name":"getVirtualPrice","inputs":[],"outputs":[{"name":"","type":"uint256","internalType":"uint256"}],"stateMutability":"view"}],"bytecode":{"object":"0x608060405234801561001057600080fd5b5060405161039638038061039683398101604081905261002f91610054565b600080546001600160a01b0319166001600160a01b0392909216919091179055610084565b60006020828403121561006657600080fd5b81516001600160a01b038116811461007d57600080fd5b9392505050565b610303806100936000396000f3fe608060405234801561001057600080fd5b50600436106100415760003560e01c8063c7a2ba5514610046578063dc7c2e791461006c578063e25aa5fa14610097575b600080fd5b61005961005436600461022f565b61009f565b6040519081526020015b60405180910390f35b61007f61007a36600461026b565b610127565b6040516001600160a01b039091168152602001610063565b61005961019b565b60008054604051635e0d443f60e01b8152600f86810b600483015285900b6024820152604481018490526001600160a01b0390911690635e0d443f90606401602060405180830381865afa1580156100fb573d6000803e3d6000fd5b505050506040513d601f19601f8201168201806040525081019061011f9190610284565b949350505050565b6000805460405163c661065760e01b8152600481018490526001600160a01b039091169063c661065790602401602060405180830381865afa158015610171573d6000803e3d6000fd5b505050506040513d601f19601f82011682018060405250810190610195919061029d565b92915050565b60008060009054906101000a90046001600160a01b03166001600160a01b031663bb7b8b806040518163ffffffff1660e01b8152600401602060405180830381865afa1580156101ef573d6000803e3d6000fd5b505050506040513d601f19601f820116820180604052508101906102139190610284565b905090565b8035600f81900b811461022a57600080fd5b919050565b60008060006060848603121561024457600080fd5b61024d84610218565b925061025b60208501610218565b9150604084013590509250925092565b60006020828403121561027d57600080fd5b5035919050565b60006020828403121561029657600080fd5b5051919050565b6000602082840312156102af57600080fd5b81516001600160a01b03811681146102c657600080fd5b939250505056fea26469706673582212205b5b7fc8a2c4e7664db78a03e45c525382cea948935f923c8da2717e9c2b784164736f6c63430008170033","linkReferences":{}},"methodIdentifiers":{"getSpotPrice(int128,int128,uint256)":"c7a2ba55","getUnderlyingCoins(uint256)":"dc7c2e79","getVirtualPrice()":"e25aa5fa"},"id":20}