{"abi":[{"type":"constructor","inputs":[{"name":"_metaRegistryAddress","type":"address","internalType":"address"}],"stateMutability":"nonpayable"},{"type":"function","name":"getSpotPrice","inputs":[{"name":"token","type":"address","internalType":"address"},{"name":"quoteToken","type":"address","internalType":"address"},{"name":"lpToken","type":"address","internalType":"address"}],"outputs":[{"name":"price","type":"uint256","internalType":"uint256"}],"stateMutability":"view"},{"type":"function","name":"metaRegistry","inputs":[],"outputs":[{"name":"","type":"address","internalType":"contract IMetaRegistry"}],"stateMutability":"view"}],"bytecode":{"object":"0x608060405234801561001057600080fd5b506040516104fa3803806104fa83398101604081905261002f91610054565b600080546001600160a01b0319166001600160a01b0392909216919091179055610084565b60006020828403121561006657600080fd5b81516001600160a01b038116811461007d57600080fd5b9392505050565b610467806100936000396000f3fe608060405234801561001057600080fd5b50600436106100365760003560e01c806344693a4b1461003b57806375075ad51461006b575b600080fd5b60005461004e906001600160a01b031681565b6040516001600160a01b0390911681526020015b60405180910390f35b61007e6100793660046103a9565b61008c565b604051908152602001610062565b6000805460405163bdf475c360e01b81526001600160a01b0384811660048301528392169063bdf475c390602401602060405180830381865afa1580156100d7573d6000803e3d6000fd5b505050506040513d601f19601f820116820180604052508101906100fb91906103f4565b90506001600160a01b0381166101585760405162461bcd60e51b815260206004820152601b60248201527f506f6f6c206e6f7420666f756e6420666f72204c5020746f6b656e000000000060448201526064015b60405180910390fd5b60006101648287610263565b905060006101728387610263565b905081600f0b6000191415801561018e575080600f0b60001914155b6101d25760405162461bcd60e51b8152602060048201526015602482015274151bdad95b881a5b99195e081b9bdd08199bdd5b99605a1b604482015260640161014f565b604051635e0d443f60e01b8152600f83810b600483015282900b6024820152670de0b6b3a764000060448201819052906001600160a01b03851690635e0d443f90606401602060405180830381865afa158015610233573d6000803e3d6000fd5b505050506040513d601f19601f820116820180604052508101906102579190610418565b98975050505050505050565b6000808390506000816001600160a01b031663ed52976a6040518163ffffffff1660e01b8152600401602060405180830381865afa1580156102a9573d6000803e3d6000fd5b505050506040513d601f19601f820116820180604052508101906102cd9190610418565b905060005b816001600160801b0316816001600160801b031610156103825760405163c661065760e01b81526001600160801b03821660048201526001600160a01b03808716919085169063c661065790602401602060405180830381865afa15801561033e573d6000803e3d6000fd5b505050506040513d601f19601f8201168201806040525081019061036291906103f4565b6001600160a01b03160361037a57925061038b915050565b6001016102d2565b50600019925050505b92915050565b6001600160a01b03811681146103a657600080fd5b50565b6000806000606084860312156103be57600080fd5b83356103c981610391565b925060208401356103d981610391565b915060408401356103e981610391565b809150509250925092565b60006020828403121561040657600080fd5b815161041181610391565b9392505050565b60006020828403121561042a57600080fd5b505191905056fea26469706673582212200b703e80797e52ad9b584b6b1395e4404ae467c5d8178afe9f9adfb992072fd764736f6c63430008170033","linkReferences":{}},"methodIdentifiers":{"getSpotPrice(address,address,address)":"75075ad5","metaRegistry()":"44693a4b"},"id":20}